{
  "_format": "hh-sol-artifact-1",
  "contractName": "LuckyToken",
  "sourceName": "contracts/LuckyToken.sol",
  "abi": [
    {
      "inputs": [
        {
          "internalType": "uint256",
          "name": "initialSupply",
          "type": "uint256"
        },
        {
          "internalType": "uint256",
          "name": "_faucetAmount",
          "type": "uint256"
        }
      ],
      "stateMutability": "nonpayable",
      "type": "constructor"
    },
    {
      "inputs": [],
      "name": "AccessControlBadConfirmation",
      "type": "error"
    },
    {
      "inputs": [
        {
          "internalType": "address",
          "name": "account",
          "type": "address"
        },
        {
          "internalType": "bytes32",
          "name": "neededRole",
          "type": "bytes32"
        }
      ],
      "name": "AccessControlUnauthorizedAccount",
      "type": "error"
    },
    {
      "inputs": [],
      "name": "ECDSAInvalidSignature",
      "type": "error"
    },
    {
      "inputs": [
        {
          "internalType": "uint256",
          "name": "length",
          "type": "uint256"
        }
      ],
      "name": "ECDSAInvalidSignatureLength",
      "type": "error"
    },
    {
      "inputs": [
        {
          "internalType": "bytes32",
          "name": "s",
          "type": "bytes32"
        }
      ],
      "name": "ECDSAInvalidSignatureS",
      "type": "error"
    },
    {
      "inputs": [
        {
          "internalType": "address",
          "name": "spender",
          "type": "address"
        },
        {
          "internalType": "uint256",
          "name": "allowance",
          "type": "uint256"
        },
        {
          "internalType": "uint256",
          "name": "needed",
          "type": "uint256"
        }
      ],
      "name": "ERC20InsufficientAllowance",
      "type": "error"
    },
    {
      "inputs": [
        {
          "internalType": "address",
          "name": "sender",
          "type": "address"
        },
        {
          "internalType": "uint256",
          "name": "balance",
          "type": "uint256"
        },
        {
          "internalType": "uint256",
          "name": "needed",
          "type": "uint256"
        }
      ],
      "name": "ERC20InsufficientBalance",
      "type": "error"
    },
    {
      "inputs": [
        {
          "internalType": "address",
          "name": "approver",
          "type": "address"
        }
      ],
      "name": "ERC20InvalidApprover",
      "type": "error"
    },
    {
      "inputs": [
        {
          "internalType": "address",
          "name": "receiver",
          "type": "address"
        }
      ],
      "name": "ERC20InvalidReceiver",
      "type": "error"
    },
    {
      "inputs": [
        {
          "internalType": "address",
          "name": "sender",
          "type": "address"
        }
      ],
      "name": "ERC20InvalidSender",
      "type": "error"
    },
    {
      "inputs": [
        {
          "internalType": "address",
          "name": "spender",
          "type": "address"
        }
      ],
      "name": "ERC20InvalidSpender",
      "type": "error"
    },
    {
      "inputs": [
        {
          "internalType": "uint256",
          "name": "deadline",
          "type": "uint256"
        }
      ],
      "name": "ERC2612ExpiredSignature",
      "type": "error"
    },
    {
      "inputs": [
        {
          "internalType": "address",
          "name": "signer",
          "type": "address"
        },
        {
          "internalType": "address",
          "name": "owner",
          "type": "address"
        }
      ],
      "name": "ERC2612InvalidSigner",
      "type": "error"
    },
    {
      "inputs": [
        {
          "internalType": "address",
          "name": "account",
          "type": "address"
        },
        {
          "internalType": "uint256",
          "name": "currentNonce",
          "type": "uint256"
        }
      ],
      "name": "InvalidAccountNonce",
      "type": "error"
    },
    {
      "inputs": [],
      "name": "InvalidShortString",
      "type": "error"
    },
    {
      "inputs": [
        {
          "internalType": "string",
          "name": "str",
          "type": "string"
        }
      ],
      "name": "StringTooLong",
      "type": "error"
    },
    {
      "anonymous": false,
      "inputs": [
        {
          "indexed": true,
          "internalType": "address",
          "name": "owner",
          "type": "address"
        },
        {
          "indexed": true,
          "internalType": "address",
          "name": "spender",
          "type": "address"
        },
        {
          "indexed": false,
          "internalType": "uint256",
          "name": "value",
          "type": "uint256"
        }
      ],
      "name": "Approval",
      "type": "event"
    },
    {
      "anonymous": false,
      "inputs": [],
      "name": "EIP712DomainChanged",
      "type": "event"
    },
    {
      "anonymous": false,
      "inputs": [
        {
          "indexed": true,
          "internalType": "bytes32",
          "name": "role",
          "type": "bytes32"
        },
        {
          "indexed": true,
          "internalType": "bytes32",
          "name": "previousAdminRole",
          "type": "bytes32"
        },
        {
          "indexed": true,
          "internalType": "bytes32",
          "name": "newAdminRole",
          "type": "bytes32"
        }
      ],
      "name": "RoleAdminChanged",
      "type": "event"
    },
    {
      "anonymous": false,
      "inputs": [
        {
          "indexed": true,
          "internalType": "bytes32",
          "name": "role",
          "type": "bytes32"
        },
        {
          "indexed": true,
          "internalType": "address",
          "name": "account",
          "type": "address"
        },
        {
          "indexed": true,
          "internalType": "address",
          "name": "sender",
          "type": "address"
        }
      ],
      "name": "RoleGranted",
      "type": "event"
    },
    {
      "anonymous": false,
      "inputs": [
        {
          "indexed": true,
          "internalType": "bytes32",
          "name": "role",
          "type": "bytes32"
        },
        {
          "indexed": true,
          "internalType": "address",
          "name": "account",
          "type": "address"
        },
        {
          "indexed": true,
          "internalType": "address",
          "name": "sender",
          "type": "address"
        }
      ],
      "name": "RoleRevoked",
      "type": "event"
    },
    {
      "anonymous": false,
      "inputs": [
        {
          "indexed": true,
          "internalType": "address",
          "name": "from",
          "type": "address"
        },
        {
          "indexed": true,
          "internalType": "address",
          "name": "to",
          "type": "address"
        },
        {
          "indexed": false,
          "internalType": "uint256",
          "name": "value",
          "type": "uint256"
        }
      ],
      "name": "Transfer",
      "type": "event"
    },
    {
      "inputs": [],
      "name": "DEFAULT_ADMIN_ROLE",
      "outputs": [
        {
          "internalType": "bytes32",
          "name": "",
          "type": "bytes32"
        }
      ],
      "stateMutability": "view",
      "type": "function"
    },
    {
      "inputs": [],
      "name": "DOMAIN_SEPARATOR",
      "outputs": [
        {
          "internalType": "bytes32",
          "name": "",
          "type": "bytes32"
        }
      ],
      "stateMutability": "view",
      "type": "function"
    },
    {
      "inputs": [
        {
          "internalType": "address",
          "name": "owner",
          "type": "address"
        },
        {
          "internalType": "address",
          "name": "spender",
          "type": "address"
        }
      ],
      "name": "allowance",
      "outputs": [
        {
          "internalType": "uint256",
          "name": "",
          "type": "uint256"
        }
      ],
      "stateMutability": "view",
      "type": "function"
    },
    {
      "inputs": [
        {
          "internalType": "address",
          "name": "spender",
          "type": "address"
        },
        {
          "internalType": "uint256",
          "name": "value",
          "type": "uint256"
        }
      ],
      "name": "approve",
      "outputs": [
        {
          "internalType": "bool",
          "name": "",
          "type": "bool"
        }
      ],
      "stateMutability": "nonpayable",
      "type": "function"
    },
    {
      "inputs": [
        {
          "internalType": "address",
          "name": "account",
          "type": "address"
        }
      ],
      "name": "balanceOf",
      "outputs": [
        {
          "internalType": "uint256",
          "name": "",
          "type": "uint256"
        }
      ],
      "stateMutability": "view",
      "type": "function"
    },
    {
      "inputs": [
        {
          "internalType": "address",
          "name": "_newOwner",
          "type": "address"
        }
      ],
      "name": "changeOwner",
      "outputs": [],
      "stateMutability": "nonpayable",
      "type": "function"
    },
    {
      "inputs": [],
      "name": "decimals",
      "outputs": [
        {
          "internalType": "uint8",
          "name": "",
          "type": "uint8"
        }
      ],
      "stateMutability": "view",
      "type": "function"
    },
    {
      "inputs": [],
      "name": "eip712Domain",
      "outputs": [
        {
          "internalType": "bytes1",
          "name": "fields",
          "type": "bytes1"
        },
        {
          "internalType": "string",
          "name": "name",
          "type": "string"
        },
        {
          "internalType": "string",
          "name": "version",
          "type": "string"
        },
        {
          "internalType": "uint256",
          "name": "chainId",
          "type": "uint256"
        },
        {
          "internalType": "address",
          "name": "verifyingContract",
          "type": "address"
        },
        {
          "internalType": "bytes32",
          "name": "salt",
          "type": "bytes32"
        },
        {
          "internalType": "uint256[]",
          "name": "extensions",
          "type": "uint256[]"
        }
      ],
      "stateMutability": "view",
      "type": "function"
    },
    {
      "inputs": [],
      "name": "faucetAmount",
      "outputs": [
        {
          "internalType": "uint256",
          "name": "",
          "type": "uint256"
        }
      ],
      "stateMutability": "view",
      "type": "function"
    },
    {
      "inputs": [],
      "name": "faucetCooldown",
      "outputs": [
        {
          "internalType": "uint256",
          "name": "",
          "type": "uint256"
        }
      ],
      "stateMutability": "view",
      "type": "function"
    },
    {
      "inputs": [],
      "name": "getAdminAddress",
      "outputs": [
        {
          "internalType": "address",
          "name": "",
          "type": "address"
        }
      ],
      "stateMutability": "view",
      "type": "function"
    },
    {
      "inputs": [],
      "name": "getContractAddress",
      "outputs": [
        {
          "internalType": "address",
          "name": "",
          "type": "address"
        }
      ],
      "stateMutability": "view",
      "type": "function"
    },
    {
      "inputs": [],
      "name": "getContractTokenBalance",
      "outputs": [
        {
          "internalType": "uint256",
          "name": "",
          "type": "uint256"
        }
      ],
      "stateMutability": "view",
      "type": "function"
    },
    {
      "inputs": [
        {
          "internalType": "bytes32",
          "name": "role",
          "type": "bytes32"
        }
      ],
      "name": "getRoleAdmin",
      "outputs": [
        {
          "internalType": "bytes32",
          "name": "",
          "type": "bytes32"
        }
      ],
      "stateMutability": "view",
      "type": "function"
    },
    {
      "inputs": [
        {
          "internalType": "bytes32",
          "name": "role",
          "type": "bytes32"
        },
        {
          "internalType": "address",
          "name": "account",
          "type": "address"
        }
      ],
      "name": "grantRole",
      "outputs": [],
      "stateMutability": "nonpayable",
      "type": "function"
    },
    {
      "inputs": [
        {
          "internalType": "bytes32",
          "name": "role",
          "type": "bytes32"
        },
        {
          "internalType": "address",
          "name": "account",
          "type": "address"
        }
      ],
      "name": "hasRole",
      "outputs": [
        {
          "internalType": "bool",
          "name": "",
          "type": "bool"
        }
      ],
      "stateMutability": "view",
      "type": "function"
    },
    {
      "inputs": [
        {
          "internalType": "address",
          "name": "user",
          "type": "address"
        }
      ],
      "name": "lastFaucetRequest",
      "outputs": [
        {
          "internalType": "uint256",
          "name": "",
          "type": "uint256"
        }
      ],
      "stateMutability": "view",
      "type": "function"
    },
    {
      "inputs": [
        {
          "internalType": "uint256",
          "name": "amount",
          "type": "uint256"
        }
      ],
      "name": "loadFaucet",
      "outputs": [],
      "stateMutability": "nonpayable",
      "type": "function"
    },
    {
      "inputs": [
        {
          "internalType": "address",
          "name": "to",
          "type": "address"
        },
        {
          "internalType": "uint256",
          "name": "amount",
          "type": "uint256"
        }
      ],
      "name": "mint",
      "outputs": [],
      "stateMutability": "nonpayable",
      "type": "function"
    },
    {
      "inputs": [],
      "name": "name",
      "outputs": [
        {
          "internalType": "string",
          "name": "",
          "type": "string"
        }
      ],
      "stateMutability": "view",
      "type": "function"
    },
    {
      "inputs": [
        {
          "internalType": "address",
          "name": "owner",
          "type": "address"
        }
      ],
      "name": "nonces",
      "outputs": [
        {
          "internalType": "uint256",
          "name": "",
          "type": "uint256"
        }
      ],
      "stateMutability": "view",
      "type": "function"
    },
    {
      "inputs": [
        {
          "internalType": "address",
          "name": "owner",
          "type": "address"
        },
        {
          "internalType": "address",
          "name": "spender",
          "type": "address"
        },
        {
          "internalType": "uint256",
          "name": "value",
          "type": "uint256"
        },
        {
          "internalType": "uint256",
          "name": "deadline",
          "type": "uint256"
        },
        {
          "internalType": "uint8",
          "name": "v",
          "type": "uint8"
        },
        {
          "internalType": "bytes32",
          "name": "r",
          "type": "bytes32"
        },
        {
          "internalType": "bytes32",
          "name": "s",
          "type": "bytes32"
        }
      ],
      "name": "permit",
      "outputs": [],
      "stateMutability": "nonpayable",
      "type": "function"
    },
    {
      "inputs": [
        {
          "internalType": "bytes32",
          "name": "role",
          "type": "bytes32"
        },
        {
          "internalType": "address",
          "name": "callerConfirmation",
          "type": "address"
        }
      ],
      "name": "renounceRole",
      "outputs": [],
      "stateMutability": "nonpayable",
      "type": "function"
    },
    {
      "inputs": [],
      "name": "requestTokens",
      "outputs": [],
      "stateMutability": "nonpayable",
      "type": "function"
    },
    {
      "inputs": [
        {
          "internalType": "bytes32",
          "name": "role",
          "type": "bytes32"
        },
        {
          "internalType": "address",
          "name": "account",
          "type": "address"
        }
      ],
      "name": "revokeRole",
      "outputs": [],
      "stateMutability": "nonpayable",
      "type": "function"
    },
    {
      "inputs": [
        {
          "internalType": "bytes4",
          "name": "interfaceId",
          "type": "bytes4"
        }
      ],
      "name": "supportsInterface",
      "outputs": [
        {
          "internalType": "bool",
          "name": "",
          "type": "bool"
        }
      ],
      "stateMutability": "view",
      "type": "function"
    },
    {
      "inputs": [],
      "name": "symbol",
      "outputs": [
        {
          "internalType": "string",
          "name": "",
          "type": "string"
        }
      ],
      "stateMutability": "view",
      "type": "function"
    },
    {
      "inputs": [],
      "name": "totalSupply",
      "outputs": [
        {
          "internalType": "uint256",
          "name": "",
          "type": "uint256"
        }
      ],
      "stateMutability": "view",
      "type": "function"
    },
    {
      "inputs": [
        {
          "internalType": "address",
          "name": "to",
          "type": "address"
        },
        {
          "internalType": "uint256",
          "name": "value",
          "type": "uint256"
        }
      ],
      "name": "transfer",
      "outputs": [
        {
          "internalType": "bool",
          "name": "",
          "type": "bool"
        }
      ],
      "stateMutability": "nonpayable",
      "type": "function"
    },
    {
      "inputs": [
        {
          "internalType": "address",
          "name": "from",
          "type": "address"
        },
        {
          "internalType": "address",
          "name": "to",
          "type": "address"
        },
        {
          "internalType": "uint256",
          "name": "value",
          "type": "uint256"
        }
      ],
      "name": "transferFrom",
      "outputs": [
        {
          "internalType": "bool",
          "name": "",
          "type": "bool"
        }
      ],
      "stateMutability": "nonpayable",
      "type": "function"
    },
    {
      "inputs": [
        {
          "internalType": "address",
          "name": "transferor",
          "type": "address"
        },
        {
          "internalType": "uint256",
          "name": "amount",
          "type": "uint256"
        }
      ],
      "name": "transferIn",
      "outputs": [
        {
          "internalType": "bool",
          "name": "",
          "type": "bool"
        }
      ],
      "stateMutability": "nonpayable",
      "type": "function"
    },
    {
      "inputs": [
        {
          "internalType": "address",
          "name": "transferee",
          "type": "address"
        },
        {
          "internalType": "uint256",
          "name": "amount",
          "type": "uint256"
        }
      ],
      "name": "transferOut",
      "outputs": [
        {
          "internalType": "bool",
          "name": "",
          "type": "bool"
        }
      ],
      "stateMutability": "nonpayable",
      "type": "function"
    },
    {
      "inputs": [
        {
          "internalType": "uint256",
          "name": "_faucetAmount",
          "type": "uint256"
        },
        {
          "internalType": "uint256",
          "name": "_faucetCooldown",
          "type": "uint256"
        }
      ],
      "name": "updateFaucetSettings",
      "outputs": [],
      "stateMutability": "nonpayable",
      "type": "function"
    }
  ],
  "bytecode": "0x610160604052610708600a553480156200001857600080fd5b50604051620021ac380380620021ac8339810160408190526200003b9162000470565b6040518060400160405280600a815260200169263ab1b5bcaa37b5b2b760b11b81525080604051806040016040528060018152602001603160f81b8152506040518060400160405280600a815260200169263ab1b5bcaa37b5b2b760b11b815250604051806040016040528060038152602001624c544b60e81b8152508160039081620000c991906200053a565b506004620000d882826200053a565b50620000ea91508390506005620001cd565b61012052620000fb816006620001cd565b61014052815160208084019190912060e052815190820120610100524660a0526200018960e05161010051604080517f8b73c3c69bb8fe3d512ecc4cf759cc79239f7b179b0ffacaa9a75d522b39400f60208201529081019290925260608201524660808201523060a082015260009060c00160405160208183030381529060405280519060200120905090565b60805250503060c05250600b80546001600160a01b03191633908117909155620001b69060009062000206565b50620001c33083620002b8565b600955506200069d565b6000602083511015620001ed57620001e583620002fa565b905062000200565b81620001fa84826200053a565b5060ff90505b92915050565b60008281526008602090815260408083206001600160a01b038516845290915281205460ff16620002af5760008381526008602090815260408083206001600160a01b03861684529091529020805460ff19166001179055620002663390565b6001600160a01b0316826001600160a01b0316847f2f8788117e7eff1d82e926ec794901d17c78024a50270940304540a733656f0d60405160405180910390a450600162000200565b50600062000200565b6001600160a01b038216620002e85760405163ec442f0560e01b8152600060048201526024015b60405180910390fd5b620002f6600083836200033d565b5050565b600080829050601f8151111562000328578260405163305a27a960e01b8152600401620002df919062000606565b8051620003358262000656565b179392505050565b6001600160a01b0383166200036c5780600260008282546200036091906200067b565b90915550620003e09050565b6001600160a01b03831660009081526020819052604090205481811015620003c15760405163391434e360e21b81526001600160a01b03851660048201526024810182905260448101839052606401620002df565b6001600160a01b03841660009081526020819052604090209082900390555b6001600160a01b038216620003fe576002805482900390556200041d565b6001600160a01b03821660009081526020819052604090208054820190555b816001600160a01b0316836001600160a01b03167fddf252ad1be2c89b69c2b068fc378daa952ba7f163c4a11628f55a4df523b3ef836040516200046391815260200190565b60405180910390a3505050565b600080604083850312156200048457600080fd5b505080516020909101519092909150565b634e487b7160e01b600052604160045260246000fd5b600181811c90821680620004c057607f821691505b602082108103620004e157634e487b7160e01b600052602260045260246000fd5b50919050565b601f8211156200053557600081815260208120601f850160051c81016020861015620005105750805b601f850160051c820191505b8181101562000531578281556001016200051c565b5050505b505050565b81516001600160401b0381111562000556576200055662000495565b6200056e81620005678454620004ab565b84620004e7565b602080601f831160018114620005a657600084156200058d5750858301515b600019600386901b1c1916600185901b17855562000531565b600085815260208120601f198616915b82811015620005d757888601518255948401946001909101908401620005b6565b5085821015620005f65787850151600019600388901b60f8161c191681555b5050505050600190811b01905550565b600060208083528351808285015260005b81811015620006355785810183015185820160400152820162000617565b506000604082860101526040601f19601f8301168501019250505092915050565b80516020808301519190811015620004e15760001960209190910360031b1b16919050565b808201808211156200020057634e487b7160e01b600052601160045260246000fd5b60805160a05160c05160e051610100516101205161014051611ab4620006f86000396000610f3501526000610f0801526000610e0d01526000610de501526000610d4001526000610d6a01526000610d940152611ab46000f3fe608060405234801561001057600080fd5b50600436106101fb5760003560e01c806376890c581161011a578063a217fddf116100ad578063d505accf1161007c578063d505accf1461041d578063d547741f14610430578063d5ace7ba14610443578063dd62ed3e1461046c578063e8888915146104a557600080fd5b8063a217fddf146103de578063a6f9dae1146103e6578063a9059cbb146103f9578063b2e6b9121461040c57600080fd5b80639195859f116100e95780639195859f146103a757806391d14854146103ba57806395d89b41146103cd5780639c281430146103d557600080fd5b806376890c581461035d5780637e36320b146103705780637ecebe001461037957806384b0196e1461038c57600080fd5b8063317d94531161019257806336568abe1161016157806336568abe146102fb57806340c10f191461030e578063706e1af01461032157806370a082311461033457600080fd5b8063317d9453146102bc57806332a2c5d0146102d1578063359cf2b7146102eb5780633644e515146102f357600080fd5b806323b872dd116101ce57806323b872dd14610262578063248a9ca3146102755780632f2ff15d14610298578063313ce567146102ad57600080fd5b806301ffc9a71461020057806306fdde0314610228578063095ea7b31461023d57806318160ddd14610250575b600080fd5b61021361020e366004611560565b6104b8565b60405190151581526020015b60405180910390f35b6102306104ef565b60405161021f91906115e1565b61021361024b366004611610565b610581565b6002545b60405190815260200161021f565b61021361027036600461163a565b610599565b610254610283366004611676565b60009081526008602052604090206001015490565b6102ab6102a636600461168f565b6105bd565b005b6040516012815260200161021f565b30600090815260208190526040902054610254565b305b6040516001600160a01b03909116815260200161021f565b6102ab6105ed565b610254610700565b6102ab61030936600461168f565b61070a565b6102ab61031c366004611610565b610742565b6102ab61032f3660046116bb565b610757565b6102546103423660046116dd565b6001600160a01b031660009081526020819052604090205490565b61021361036b366004611610565b610782565b610254600a5481565b6102546103873660046116dd565b610804565b610394610822565b60405161021f97969594939291906116f8565b6102ab6103b5366004611676565b610868565b6102136103c836600461168f565b6108dc565b610230610907565b61025460095481565b610254600081565b6102ab6103f43660046116dd565b610916565b610213610407366004611610565b610947565b600b546001600160a01b03166102d3565b6102ab61042b36600461178e565b610955565b6102ab61043e36600461168f565b610a8f565b6102546104513660046116dd565b6001600160a01b03166000908152600c602052604090205490565b61025461047a366004611801565b6001600160a01b03918216600090815260016020908152604080832093909416825291909152205490565b6102136104b3366004611610565b610ab4565b60006001600160e01b03198216637965db0b60e01b14806104e957506301ffc9a760e01b6001600160e01b03198316145b92915050565b6060600380546104fe9061182b565b80601f016020809104026020016040519081016040528092919081815260200182805461052a9061182b565b80156105775780601f1061054c57610100808354040283529160200191610577565b820191906000526020600020905b81548152906001019060200180831161055a57829003601f168201915b5050505050905090565b60003361058f818585610b1b565b5060019392505050565b6000336105a7858285610b28565b6105b2858585610ba0565b506001949350505050565b6000828152600860205260409020600101546105d881610bff565b6105e28383610c0c565b50505050565b905090565b600a54336000908152600c602052604090205461060a919061187b565b600a54336000908152600c602052604090205442929092101591610636916106319161187b565b610ca0565b604051602001610646919061188e565b6040516020818303038152906040529061067c5760405162461bcd60e51b815260040161067391906115e1565b60405180910390fd5b506009543060009081526020819052604090205410156106de5760405162461bcd60e51b815260206004820152601a60248201527f496e73756666696369656e742066617563657420737570706c790000000000006044820152606401610673565b336000818152600c602052604090204290556009546106fe913091610ba0565b565b60006105e8610d33565b6001600160a01b03811633146107335760405163334bd91960e11b815260040160405180910390fd5b61073d8282610e5e565b505050565b600061074d81610bff565b61073d8383610ecb565b600061076281610bff565b61076e6012600a6119d5565b61077890846119e4565b60095550600a5550565b60008061078e81610bff565b306000908152602081905260409020548311156107f95760405162461bcd60e51b8152602060048201526024808201527f496e73756666696369656e742062616c616e636520746f207472616e73666572604482015263081bdd5d60e21b6064820152608401610673565b61058f308585610ba0565b6001600160a01b0381166000908152600760205260408120546104e9565b600060608060008060006060610836610f01565b61083e610f2e565b60408051600080825260208201909252600f60f81b9b939a50919850469750309650945092509050565b600061087381610bff565b3360009081526020819052604090205482111561088f83610ca0565b60405160200161089f9190611a11565b604051602081830303815290604052906108cc5760405162461bcd60e51b815260040161067391906115e1565b506108d8333084610ba0565b5050565b60009182526008602090815260408084206001600160a01b0393909316845291905290205460ff1690565b6060600480546104fe9061182b565b600061092181610bff565b600b80546001600160a01b0319166001600160a01b03841617905561073d600083610c0c565b60003361058f818585610ba0565b834211156109795760405163313c898160e11b815260048101859052602401610673565b60007f6e71edae12b1b97f4d1f60370fef10105fa2faae0126114a169c64845d6126c98888886109c68c6001600160a01b0316600090815260076020526040902080546001810190915590565b6040805160208101969096526001600160a01b0394851690860152929091166060840152608083015260a082015260c0810186905260e0016040516020818303038152906040528051906020012090506000610a2182610f5b565b90506000610a3182878787610f88565b9050896001600160a01b0316816001600160a01b031614610a78576040516325c0072360e11b81526001600160a01b0380831660048301528b166024820152604401610673565b610a838a8a8a610b1b565b50505050505050505050565b600082815260086020526040902060010154610aaa81610bff565b6105e28383610e5e565b600080610ac081610bff565b60008311610b105760405162461bcd60e51b815260206004820181905260248201527f416d6f756e74206d7573742062652067726561746572207468616e207a65726f6044820152606401610673565b61058f843085610ba0565b61073d8383836001610fb6565b6001600160a01b0383811660009081526001602090815260408083209386168352929052205460001981146105e25781811015610b9157604051637dc7a0d960e11b81526001600160a01b03841660048201526024810182905260448101839052606401610673565b6105e284848484036000610fb6565b6001600160a01b038316610bca57604051634b637e8f60e11b815260006004820152602401610673565b6001600160a01b038216610bf45760405163ec442f0560e01b815260006004820152602401610673565b61073d83838361108b565b610c0981336111b5565b50565b6000610c1883836108dc565b610c985760008381526008602090815260408083206001600160a01b03861684529091529020805460ff19166001179055610c503390565b6001600160a01b0316826001600160a01b0316847f2f8788117e7eff1d82e926ec794901d17c78024a50270940304540a733656f0d60405160405180910390a45060016104e9565b5060006104e9565b60606000610cad836111ee565b600101905060008167ffffffffffffffff811115610ccd57610ccd6119fb565b6040519080825280601f01601f191660200182016040528015610cf7576020820181803683370190505b5090508181016020015b600019016f181899199a1a9b1b9c1cb0b131b232b360811b600a86061a8153600a8504945084610d0157509392505050565b6000306001600160a01b037f000000000000000000000000000000000000000000000000000000000000000016148015610d8c57507f000000000000000000000000000000000000000000000000000000000000000046145b15610db657507f000000000000000000000000000000000000000000000000000000000000000090565b6105e8604080517f8b73c3c69bb8fe3d512ecc4cf759cc79239f7b179b0ffacaa9a75d522b39400f60208201527f0000000000000000000000000000000000000000000000000000000000000000918101919091527f000000000000000000000000000000000000000000000000000000000000000060608201524660808201523060a082015260009060c00160405160208183030381529060405280519060200120905090565b6000610e6a83836108dc565b15610c985760008381526008602090815260408083206001600160a01b0386168085529252808320805460ff1916905551339286917ff6391f5c32d9c69d2a47ea670b442974b53935d1edc7fd64eb21e047a839171b9190a45060016104e9565b6001600160a01b038216610ef55760405163ec442f0560e01b815260006004820152602401610673565b6108d86000838361108b565b60606105e87f000000000000000000000000000000000000000000000000000000000000000060056112c6565b60606105e87f000000000000000000000000000000000000000000000000000000000000000060066112c6565b60006104e9610f68610d33565b8360405161190160f01b8152600281019290925260228201526042902090565b600080600080610f9a88888888611371565b925092509250610faa8282611440565b50909695505050505050565b6001600160a01b038416610fe05760405163e602df0560e01b815260006004820152602401610673565b6001600160a01b03831661100a57604051634a1406b160e11b815260006004820152602401610673565b6001600160a01b03808516600090815260016020908152604080832093871683529290522082905580156105e257826001600160a01b0316846001600160a01b03167f8c5be1e5ebec7d5bd14f71427d1e84f3dd0314c0f7b2291e5b200ac8c7c3b9258460405161107d91815260200190565b60405180910390a350505050565b6001600160a01b0383166110b65780600260008282546110ab919061187b565b909155506111289050565b6001600160a01b038316600090815260208190526040902054818110156111095760405163391434e360e21b81526001600160a01b03851660048201526024810182905260448101839052606401610673565b6001600160a01b03841660009081526020819052604090209082900390555b6001600160a01b03821661114457600280548290039055611163565b6001600160a01b03821660009081526020819052604090208054820190555b816001600160a01b0316836001600160a01b03167fddf252ad1be2c89b69c2b068fc378daa952ba7f163c4a11628f55a4df523b3ef836040516111a891815260200190565b60405180910390a3505050565b6111bf82826108dc565b6108d85760405163e2517d3f60e01b81526001600160a01b038216600482015260248101839052604401610673565b60008072184f03e93ff9f4daa797ed6e38ed64bf6a1f0160401b831061122d5772184f03e93ff9f4daa797ed6e38ed64bf6a1f0160401b830492506040015b6d04ee2d6d415b85acef81000000008310611259576d04ee2d6d415b85acef8100000000830492506020015b662386f26fc10000831061127757662386f26fc10000830492506010015b6305f5e100831061128f576305f5e100830492506008015b61271083106112a357612710830492506004015b606483106112b5576064830492506002015b600a83106104e95760010192915050565b606060ff83146112e0576112d9836114f9565b90506104e9565b8180546112ec9061182b565b80601f01602080910402602001604051908101604052809291908181526020018280546113189061182b565b80156113655780601f1061133a57610100808354040283529160200191611365565b820191906000526020600020905b81548152906001019060200180831161134857829003601f168201915b505050505090506104e9565b600080807f7fffffffffffffffffffffffffffffff5d576e7357a4501ddfe92f46681b20a08411156113ac5750600091506003905082611436565b604080516000808252602082018084528a905260ff891692820192909252606081018790526080810186905260019060a0016020604051602081039080840390855afa158015611400573d6000803e3d6000fd5b5050604051601f1901519150506001600160a01b03811661142c57506000925060019150829050611436565b9250600091508190505b9450945094915050565b600082600381111561145457611454611a68565b0361145d575050565b600182600381111561147157611471611a68565b0361148f5760405163f645eedf60e01b815260040160405180910390fd5b60028260038111156114a3576114a3611a68565b036114c45760405163fce698f760e01b815260048101829052602401610673565b60038260038111156114d8576114d8611a68565b036108d8576040516335e2f38360e21b815260048101829052602401610673565b6060600061150683611538565b604080516020808252818301909252919250600091906020820181803683375050509182525060208101929092525090565b600060ff8216601f8111156104e957604051632cd44ac360e21b815260040160405180910390fd5b60006020828403121561157257600080fd5b81356001600160e01b03198116811461158a57600080fd5b9392505050565b60005b838110156115ac578181015183820152602001611594565b50506000910152565b600081518084526115cd816020860160208601611591565b601f01601f19169290920160200192915050565b60208152600061158a60208301846115b5565b80356001600160a01b038116811461160b57600080fd5b919050565b6000806040838503121561162357600080fd5b61162c836115f4565b946020939093013593505050565b60008060006060848603121561164f57600080fd5b611658846115f4565b9250611666602085016115f4565b9150604084013590509250925092565b60006020828403121561168857600080fd5b5035919050565b600080604083850312156116a257600080fd5b823591506116b2602084016115f4565b90509250929050565b600080604083850312156116ce57600080fd5b50508035926020909101359150565b6000602082840312156116ef57600080fd5b61158a826115f4565b60ff60f81b881681526000602060e08184015261171860e084018a6115b5565b838103604085015261172a818a6115b5565b606085018990526001600160a01b038816608086015260a0850187905284810360c0860152855180825283870192509083019060005b8181101561177c57835183529284019291840191600101611760565b50909c9b505050505050505050505050565b600080600080600080600060e0888a0312156117a957600080fd5b6117b2886115f4565b96506117c0602089016115f4565b95506040880135945060608801359350608088013560ff811681146117e457600080fd5b9699959850939692959460a0840135945060c09093013592915050565b6000806040838503121561181457600080fd5b61181d836115f4565b91506116b2602084016115f4565b600181811c9082168061183f57607f821691505b60208210810361185f57634e487b7160e01b600052602260045260246000fd5b50919050565b634e487b7160e01b600052601160045260246000fd5b808201808211156104e9576104e9611865565b7f46617563657420636f6f6c646f776e207374696c6c206163746976652e20506c815274032b0b9b2903a393c9030b3b0b4b71030b33a32b91605d1b6020820152600082516118e4816035850160208701611591565b9190910160350192915050565b600181815b8085111561192c57816000190482111561191257611912611865565b8085161561191f57918102915b93841c93908002906118f6565b509250929050565b600082611943575060016104e9565b81611950575060006104e9565b816001811461196657600281146119705761198c565b60019150506104e9565b60ff84111561198157611981611865565b50506001821b6104e9565b5060208310610133831016604e8410600b84101617156119af575081810a6104e9565b6119b983836118f1565b80600019048211156119cd576119cd611865565b029392505050565b600061158a60ff841683611934565b80820281158282048414176104e9576104e9611865565b634e487b7160e01b600052604160045260246000fd5b7f496e73756666696369656e742062616c616e636520746f206c6f616420666175815268031b2ba103bb4ba34160bd1b602082015260008251611a5b816029850160208701611591565b9190910160290192915050565b634e487b7160e01b600052602160045260246000fdfea2646970667358221220e6471a20c582d04b6cdf630124fe39853cd28a942c390961651176fa640d637064736f6c63430008140033",
  "linkReferences": {},
  "deployedLinkReferences": {}
}