{
  "_format": "hh-sol-artifact-1",
  "contractName": "TokenHandler",
  "sourceName": "contracts/TokenHandler.sol",
  "abi": [
    {
      "inputs": [
        {
          "internalType": "address",
          "name": "_tokenAddress",
          "type": "address"
        }
      ],
      "stateMutability": "nonpayable",
      "type": "constructor"
    },
    {
      "inputs": [
        {
          "internalType": "address",
          "name": "_newOwner",
          "type": "address"
        }
      ],
      "name": "changeOwner",
      "outputs": [],
      "stateMutability": "nonpayable",
      "type": "function"
    },
    {
      "inputs": [
        {
          "internalType": "uint256",
          "name": "_numTokens",
          "type": "uint256"
        }
      ],
      "name": "depositStashToGameKitty",
      "outputs": [],
      "stateMutability": "nonpayable",
      "type": "function"
    },
    {
      "inputs": [
        {
          "internalType": "uint256",
          "name": "_numTokens",
          "type": "uint256"
        }
      ],
      "name": "depositWalletToStash",
      "outputs": [],
      "stateMutability": "nonpayable",
      "type": "function"
    },
    {
      "inputs": [],
      "name": "getGameBalance",
      "outputs": [
        {
          "internalType": "uint256",
          "name": "",
          "type": "uint256"
        }
      ],
      "stateMutability": "view",
      "type": "function"
    },
    {
      "inputs": [],
      "name": "getGameKittyBalance",
      "outputs": [
        {
          "internalType": "uint256",
          "name": "",
          "type": "uint256"
        }
      ],
      "stateMutability": "view",
      "type": "function"
    },
    {
      "inputs": [],
      "name": "getOwnerAddress",
      "outputs": [
        {
          "internalType": "address",
          "name": "",
          "type": "address"
        }
      ],
      "stateMutability": "view",
      "type": "function"
    },
    {
      "inputs": [
        {
          "internalType": "address",
          "name": "_userAddress",
          "type": "address"
        }
      ],
      "name": "getStashBalance",
      "outputs": [
        {
          "internalType": "uint256",
          "name": "",
          "type": "uint256"
        }
      ],
      "stateMutability": "view",
      "type": "function"
    },
    {
      "inputs": [],
      "name": "masterAccountAddress",
      "outputs": [
        {
          "internalType": "address",
          "name": "",
          "type": "address"
        }
      ],
      "stateMutability": "view",
      "type": "function"
    },
    {
      "inputs": [],
      "name": "ownerAddress",
      "outputs": [
        {
          "internalType": "address",
          "name": "",
          "type": "address"
        }
      ],
      "stateMutability": "view",
      "type": "function"
    },
    {
      "inputs": [
        {
          "internalType": "address",
          "name": "recipient",
          "type": "address"
        },
        {
          "internalType": "uint256",
          "name": "_numTokens",
          "type": "uint256"
        }
      ],
      "name": "sendTokens",
      "outputs": [],
      "stateMutability": "nonpayable",
      "type": "function"
    },
    {
      "inputs": [],
      "name": "token",
      "outputs": [
        {
          "internalType": "contract LuckyToken",
          "name": "",
          "type": "address"
        }
      ],
      "stateMutability": "view",
      "type": "function"
    },
    {
      "inputs": [
        {
          "internalType": "uint256",
          "name": "_numTokens",
          "type": "uint256"
        }
      ],
      "name": "transferFromMasterAccount",
      "outputs": [],
      "stateMutability": "nonpayable",
      "type": "function"
    },
    {
      "inputs": [
        {
          "internalType": "uint256",
          "name": "_numTokens",
          "type": "uint256"
        }
      ],
      "name": "transferToMasterAccount",
      "outputs": [],
      "stateMutability": "nonpayable",
      "type": "function"
    },
    {
      "inputs": [
        {
          "internalType": "uint256",
          "name": "_numTokens",
          "type": "uint256"
        }
      ],
      "name": "withdrawGameKittyToStash",
      "outputs": [],
      "stateMutability": "nonpayable",
      "type": "function"
    },
    {
      "inputs": [
        {
          "internalType": "uint256",
          "name": "_numTokens",
          "type": "uint256"
        }
      ],
      "name": "withdrawStashToWallet",
      "outputs": [],
      "stateMutability": "nonpayable",
      "type": "function"
    }
  ],
  "bytecode": "0x608060405234801561001057600080fd5b50604051610f1a380380610f1a83398101604081905261002f9161006f565b600180546001600160a01b03199081163317909155600080546001600160a01b03939093169282168317815560028054909216909217905560045561009f565b60006020828403121561008157600080fd5b81516001600160a01b038116811461009857600080fd5b9392505050565b610e6c806100ae6000396000f3fe608060405234801561001057600080fd5b50600436106100f55760003560e01c8063425259c811610097578063a6f9dae111610066578063a6f9dae114610208578063b64665da1461021b578063c574d15614610223578063fc0c546a1461022b57600080fd5b8063425259c8146101bc57806351b1b4c7146101cf578063697ad4c8146101e25780638f84aa09146101f557600080fd5b8063122edae3116100d3578063122edae31461014c57806319be74591461015f5780631a6944b21461017257806340109f921461018557600080fd5b8063010a139d146100fa57806305ab421d1461010f5780630c4f65bd14610122575b600080fd5b61010d610108366004610b4c565b61023e565b005b61010d61011d366004610b81565b610361565b6001546001600160a01b03165b6040516001600160a01b0390911681526020015b60405180910390f35b61010d61015a366004610b4c565b610494565b61010d61016d366004610b4c565b6105a6565b61010d610180366004610b4c565b610656565b6101ae610193366004610bab565b6001600160a01b031660009081526003602052604090205490565b604051908152602001610143565b61010d6101ca366004610b4c565b610737565b61010d6101dd366004610b4c565b6107d9565b60025461012f906001600160a01b031681565b60015461012f906001600160a01b031681565b61010d610216366004610bab565b610922565b6004546101ae565b6101ae61096e565b60005461012f906001600160a01b031681565b6001546001600160a01b031633146102715760405162461bcd60e51b815260040161026890610bcd565b60405180910390fd5b60005460405163e888891560e01b8152306004820152602481018390526001600160a01b039091169063e8888915906044016020604051808303816000875af11580156102c2573d6000803e3d6000fd5b505050506040513d601f19601f820116820180604052508101906102e69190610c13565b6103475760405162461bcd60e51b815260206004820152602c60248201527f5472616e736665722066726f6d206b6974747920746f206d617374657220616360448201526b18dbdd5b9d0819985a5b195960a21b6064820152608401610268565b80600460008282546103599190610c4b565b909155505050565b336000908152600360205260409020548111156103b75760405162461bcd60e51b8152602060048201526014602482015273496e73756666696369656e742062616c616e636560601b6044820152606401610268565b60005460405163a9059cbb60e01b81526001600160a01b038481166004830152602482018490529091169063a9059cbb906044016020604051808303816000875af115801561040a573d6000803e3d6000fd5b505050506040513d601f19601f8201168201806040525081019061042e9190610c13565b61046c5760405162461bcd60e51b815260206004820152600f60248201526e151c985b9cd9995c8819985a5b1959608a1b6044820152606401610268565b336000908152600360205260408120805483929061048b908490610c4b565b90915550505050565b6001546001600160a01b031633146104be5760405162461bcd60e51b815260040161026890610bcd565b600054604051630ed1218b60e31b8152306004820152602481018390526001600160a01b03909116906376890c58906044016020604051808303816000875af115801561050f573d6000803e3d6000fd5b505050506040513d601f19601f820116820180604052508101906105339190610c13565b6105945760405162461bcd60e51b815260206004820152602c60248201527f5472616e736665722066726f6d206d6173746572206163636f756e7420746f2060448201526b1ada5d1d1e4819985a5b195960a21b6064820152608401610268565b80600460008282546103599190610c5e565b80600454101561061e5760405162461bcd60e51b815260206004820152603860248201527f496e73756666696369656e742062616c616e636520696e2067616d65206b697460448201527f747920746f2073656e6420746f207573657220737461736800000000000000006064820152608401610268565b336000908152600360205260408120805483929061063d908490610c5e565b9250508190555080600460008282546103599190610c4b565b6000546040516323b872dd60e01b8152336004820152306024820152604481018390526001600160a01b03909116906323b872dd906064016020604051808303816000875af11580156106ad573d6000803e3d6000fd5b505050506040513d601f19601f820116820180604052508101906106d19190610c13565b6106da826109e0565b6040516020016106ea9190610c95565b604051602081830303815290604052906107175760405162461bcd60e51b81526004016102689190610cf6565b503360009081526003602052604081208054839290610359908490610c5e565b336000908152600360205260409020548111156107a15760405162461bcd60e51b815260206004820152602260248201527f496e73756666696369656e742062616c616e636520696e2075736572207374616044820152610e6d60f31b6064820152608401610268565b33600090815260036020526040812080548392906107c0908490610c4b565b9250508190555080600460008282546103599190610c5e565b3360009081526003602052604090205481811015906107f7906109e0565b610800836109e0565b604051602001610811929190610d29565b6040516020818303038152906040529061083e5760405162461bcd60e51b81526004016102689190610cf6565b50336000908152600360205260408120805483929061085e908490610c4b565b909155505060005460405163a9059cbb60e01b8152336004820152602481018390526001600160a01b039091169063a9059cbb906044016020604051808303816000875af11580156108b4573d6000803e3d6000fd5b505050506040513d601f19601f820116820180604052508101906108d89190610c13565b6108e1826109e0565b6040516020016108f19190610daa565b6040516020818303038152906040529061091e5760405162461bcd60e51b81526004016102689190610cf6565b5050565b6001546001600160a01b0316331461094c5760405162461bcd60e51b815260040161026890610bcd565b600180546001600160a01b0319166001600160a01b0392909216919091179055565b600080546040516370a0823160e01b81523060048201526001600160a01b03909116906370a0823190602401602060405180830381865afa1580156109b7573d6000803e3d6000fd5b505050506040513d601f19601f820116820180604052508101906109db9190610e07565b905090565b606060006109ed83610a73565b600101905060008167ffffffffffffffff811115610a0d57610a0d610e20565b6040519080825280601f01601f191660200182016040528015610a37576020820181803683370190505b5090508181016020015b600019016f181899199a1a9b1b9c1cb0b131b232b360811b600a86061a8153600a8504945084610a4157509392505050565b60008072184f03e93ff9f4daa797ed6e38ed64bf6a1f0160401b8310610ab25772184f03e93ff9f4daa797ed6e38ed64bf6a1f0160401b830492506040015b6d04ee2d6d415b85acef81000000008310610ade576d04ee2d6d415b85acef8100000000830492506020015b662386f26fc100008310610afc57662386f26fc10000830492506010015b6305f5e1008310610b14576305f5e100830492506008015b6127108310610b2857612710830492506004015b60648310610b3a576064830492506002015b600a8310610b46576001015b92915050565b600060208284031215610b5e57600080fd5b5035919050565b80356001600160a01b0381168114610b7c57600080fd5b919050565b60008060408385031215610b9457600080fd5b610b9d83610b65565b946020939093013593505050565b600060208284031215610bbd57600080fd5b610bc682610b65565b9392505050565b60208082526026908201527f4e6f7420746865206f776e65722e204f6e6c79206f776e6572206d617920646f604082015265103a3434b99760d11b606082015260800190565b600060208284031215610c2557600080fd5b81518015158114610bc657600080fd5b634e487b7160e01b600052601160045260246000fd5b81810381811115610b4657610b46610c35565b80820180821115610b4657610b46610c35565b60005b83811015610c8c578181015183820152602001610c74565b50506000910152565b7102330b4b632b2103a37903232b837b9b4ba160751b815260008251610cc2816012850160208701610c71565b7f20746f6b656e732066726f6d2077616c6c657420746f207374617368000000006012939091019283015250602e01919050565b6020815260008251806020840152610d15816040850160208701610c71565b601f01601f19169190910160400192915050565b7f496e73756666696369656e7420746f6b656e2062616c616e6365200000000000815260008351610d6181601b850160208801610c71565b7f20696e207573657220737461736820746f207769746864726177200000000000601b918401918201528351610d9e816036840160208801610c71565b01603601949350505050565b7f5769746864726177616c20746f2077616c6c6574206f66200000000000000000815260008251610de2816018850160208701610c71565b6d081d1bdad95b9cc819985a5b195960921b6018939091019283015250602601919050565b600060208284031215610e1957600080fd5b5051919050565b634e487b7160e01b600052604160045260246000fdfea2646970667358221220d45fe3220e96313ced6f3419f38ac9effed5ae27ed305fc379099e34d7c52aa264736f6c63430008140033",
  "linkReferences": {},
  "deployedLinkReferences": {}
}