{
  "_format": "hh-sol-artifact-1",
  "contractName": "TokenHandler",
  "sourceName": "contracts/TokenHandler.sol",
  "abi": [
    {
      "inputs": [
        {
          "internalType": "address",
          "name": "_tokenAddress",
          "type": "address"
        }
      ],
      "stateMutability": "nonpayable",
      "type": "constructor"
    },
    {
      "inputs": [
        {
          "internalType": "uint256",
          "name": "_numTokens",
          "type": "uint256"
        }
      ],
      "name": "depositStashToGameKitty",
      "outputs": [],
      "stateMutability": "nonpayable",
      "type": "function"
    },
    {
      "inputs": [
        {
          "internalType": "uint256",
          "name": "_numTokens",
          "type": "uint256"
        }
      ],
      "name": "depositWalletToStash",
      "outputs": [],
      "stateMutability": "nonpayable",
      "type": "function"
    },
    {
      "inputs": [],
      "name": "getGameBalance",
      "outputs": [
        {
          "internalType": "uint256",
          "name": "",
          "type": "uint256"
        }
      ],
      "stateMutability": "view",
      "type": "function"
    },
    {
      "inputs": [],
      "name": "getGameKittyBalance",
      "outputs": [
        {
          "internalType": "uint256",
          "name": "",
          "type": "uint256"
        }
      ],
      "stateMutability": "view",
      "type": "function"
    },
    {
      "inputs": [
        {
          "internalType": "address",
          "name": "_userAddress",
          "type": "address"
        }
      ],
      "name": "getStashBalance",
      "outputs": [
        {
          "internalType": "uint256",
          "name": "",
          "type": "uint256"
        }
      ],
      "stateMutability": "view",
      "type": "function"
    },
    {
      "inputs": [],
      "name": "masterAccountAddress",
      "outputs": [
        {
          "internalType": "address",
          "name": "",
          "type": "address"
        }
      ],
      "stateMutability": "view",
      "type": "function"
    },
    {
      "inputs": [],
      "name": "ownerAddress",
      "outputs": [
        {
          "internalType": "address",
          "name": "",
          "type": "address"
        }
      ],
      "stateMutability": "view",
      "type": "function"
    },
    {
      "inputs": [
        {
          "internalType": "address",
          "name": "recipient",
          "type": "address"
        },
        {
          "internalType": "uint256",
          "name": "_numTokens",
          "type": "uint256"
        }
      ],
      "name": "sendTokens",
      "outputs": [],
      "stateMutability": "nonpayable",
      "type": "function"
    },
    {
      "inputs": [],
      "name": "token",
      "outputs": [
        {
          "internalType": "contract LuckyToken",
          "name": "",
          "type": "address"
        }
      ],
      "stateMutability": "view",
      "type": "function"
    },
    {
      "inputs": [
        {
          "internalType": "uint256",
          "name": "_numTokens",
          "type": "uint256"
        }
      ],
      "name": "transferFromMasterAccount",
      "outputs": [],
      "stateMutability": "nonpayable",
      "type": "function"
    },
    {
      "inputs": [
        {
          "internalType": "uint256",
          "name": "_numTokens",
          "type": "uint256"
        }
      ],
      "name": "transferToMasterAccount",
      "outputs": [],
      "stateMutability": "nonpayable",
      "type": "function"
    },
    {
      "inputs": [
        {
          "internalType": "uint256",
          "name": "_numTokens",
          "type": "uint256"
        }
      ],
      "name": "withdrawGameKittyToStash",
      "outputs": [],
      "stateMutability": "nonpayable",
      "type": "function"
    },
    {
      "inputs": [
        {
          "internalType": "uint256",
          "name": "_numTokens",
          "type": "uint256"
        }
      ],
      "name": "withdrawStashToWallet",
      "outputs": [],
      "stateMutability": "nonpayable",
      "type": "function"
    }
  ],
  "bytecode": "0x608060405234801561001057600080fd5b50604051610f18380380610f1883398101604081905261002f9161006f565b600180546001600160a01b03199081163317909155600080546001600160a01b03939093169282168317815560028054909216909217905560045561009f565b60006020828403121561008157600080fd5b81516001600160a01b038116811461009857600080fd5b9392505050565b610e6a806100ae6000396000f3fe608060405234801561001057600080fd5b50600436106100cf5760003560e01c8063425259c81161008c5780638f84aa09116100665780638f84aa09146101ac578063b64665da146101bf578063c574d156146101c7578063fc0c546a146101cf57600080fd5b8063425259c81461015b57806351b1b4c71461016e578063697ad4c81461018157600080fd5b8063010a139d146100d457806305ab421d146100e9578063122edae3146100fc57806319be74591461010f5780631a6944b21461012257806340109f9214610135575b600080fd5b6100e76100e2366004610b4b565b6101e2565b005b6100e76100f7366004610b80565b610305565b6100e761010a366004610b4b565b610438565b6100e761011d366004610b4b565b61054a565b6100e7610130366004610b4b565b6105fa565b610148610143366004610baa565b6106db565b6040519081526020015b60405180910390f35b6100e7610169366004610b4b565b610782565b6100e761017c366004610b4b565b610824565b600254610194906001600160a01b031681565b6040516001600160a01b039091168152602001610152565b600154610194906001600160a01b031681565b600454610148565b61014861096d565b600054610194906001600160a01b031681565b6001546001600160a01b031633146102155760405162461bcd60e51b815260040161020c90610bcc565b60405180910390fd5b60005460405163e888891560e01b8152306004820152602481018390526001600160a01b039091169063e8888915906044016020604051808303816000875af1158015610266573d6000803e3d6000fd5b505050506040513d601f19601f8201168201806040525081019061028a9190610c12565b6102eb5760405162461bcd60e51b815260206004820152602c60248201527f5472616e736665722066726f6d206b6974747920746f206d617374657220616360448201526b18dbdd5b9d0819985a5b195960a21b606482015260840161020c565b80600460008282546102fd9190610c4a565b909155505050565b3360009081526003602052604090205481111561035b5760405162461bcd60e51b8152602060048201526014602482015273496e73756666696369656e742062616c616e636560601b604482015260640161020c565b60005460405163a9059cbb60e01b81526001600160a01b038481166004830152602482018490529091169063a9059cbb906044016020604051808303816000875af11580156103ae573d6000803e3d6000fd5b505050506040513d601f19601f820116820180604052508101906103d29190610c12565b6104105760405162461bcd60e51b815260206004820152600f60248201526e151c985b9cd9995c8819985a5b1959608a1b604482015260640161020c565b336000908152600360205260408120805483929061042f908490610c4a565b90915550505050565b6001546001600160a01b031633146104625760405162461bcd60e51b815260040161020c90610bcc565b600054604051630ed1218b60e31b8152306004820152602481018390526001600160a01b03909116906376890c58906044016020604051808303816000875af11580156104b3573d6000803e3d6000fd5b505050506040513d601f19601f820116820180604052508101906104d79190610c12565b6105385760405162461bcd60e51b815260206004820152602c60248201527f5472616e736665722066726f6d206d6173746572206163636f756e7420746f2060448201526b1ada5d1d1e4819985a5b195960a21b606482015260840161020c565b80600460008282546102fd9190610c5d565b8060045410156105c25760405162461bcd60e51b815260206004820152603860248201527f496e73756666696369656e742062616c616e636520696e2067616d65206b697460448201527f747920746f2073656e6420746f20757365722073746173680000000000000000606482015260840161020c565b33600090815260036020526040812080548392906105e1908490610c5d565b9250508190555080600460008282546102fd9190610c4a565b6000546040516323b872dd60e01b8152336004820152306024820152604481018390526001600160a01b03909116906323b872dd906064016020604051808303816000875af1158015610651573d6000803e3d6000fd5b505050506040513d601f19601f820116820180604052508101906106759190610c12565b61067e826109df565b60405160200161068e9190610c94565b604051602081830303815290604052906106bb5760405162461bcd60e51b815260040161020c9190610cf5565b5033600090815260036020526040812080548392906102fd908490610c5d565b6000336001600160a01b03831614806106fe57506001546001600160a01b031633145b6107665760405162461bcd60e51b815260206004820152603360248201527f4f6e6c7920746865206f776e6572206f722074686520486f7573652063616e20604482015272636865636b2073746173682062616c616e636560681b606482015260840161020c565b506001600160a01b031660009081526003602052604090205490565b336000908152600360205260409020548111156107ec5760405162461bcd60e51b815260206004820152602260248201527f496e73756666696369656e742062616c616e636520696e2075736572207374616044820152610e6d60f31b606482015260840161020c565b336000908152600360205260408120805483929061080b908490610c4a565b9250508190555080600460008282546102fd9190610c5d565b336000908152600360205260409020548181101590610842906109df565b61084b836109df565b60405160200161085c929190610d28565b604051602081830303815290604052906108895760405162461bcd60e51b815260040161020c9190610cf5565b5033600090815260036020526040812080548392906108a9908490610c4a565b909155505060005460405163a9059cbb60e01b8152336004820152602481018390526001600160a01b039091169063a9059cbb906044016020604051808303816000875af11580156108ff573d6000803e3d6000fd5b505050506040513d601f19601f820116820180604052508101906109239190610c12565b61092c826109df565b60405160200161093c9190610da9565b604051602081830303815290604052906109695760405162461bcd60e51b815260040161020c9190610cf5565b5050565b600080546040516370a0823160e01b81523060048201526001600160a01b03909116906370a0823190602401602060405180830381865afa1580156109b6573d6000803e3d6000fd5b505050506040513d601f19601f820116820180604052508101906109da9190610e05565b905090565b606060006109ec83610a72565b600101905060008167ffffffffffffffff811115610a0c57610a0c610e1e565b6040519080825280601f01601f191660200182016040528015610a36576020820181803683370190505b5090508181016020015b600019016f181899199a1a9b1b9c1cb0b131b232b360811b600a86061a8153600a8504945084610a4057509392505050565b60008072184f03e93ff9f4daa797ed6e38ed64bf6a1f0160401b8310610ab15772184f03e93ff9f4daa797ed6e38ed64bf6a1f0160401b830492506040015b6d04ee2d6d415b85acef81000000008310610add576d04ee2d6d415b85acef8100000000830492506020015b662386f26fc100008310610afb57662386f26fc10000830492506010015b6305f5e1008310610b13576305f5e100830492506008015b6127108310610b2757612710830492506004015b60648310610b39576064830492506002015b600a8310610b45576001015b92915050565b600060208284031215610b5d57600080fd5b5035919050565b80356001600160a01b0381168114610b7b57600080fd5b919050565b60008060408385031215610b9357600080fd5b610b9c83610b64565b946020939093013593505050565b600060208284031215610bbc57600080fd5b610bc582610b64565b9392505050565b60208082526026908201527f4e6f7420746865206f776e65722e204f6e6c79206f776e6572206d617920646f604082015265103a3434b99760d11b606082015260800190565b600060208284031215610c2457600080fd5b81518015158114610bc557600080fd5b634e487b7160e01b600052601160045260246000fd5b81810381811115610b4557610b45610c34565b80820180821115610b4557610b45610c34565b60005b83811015610c8b578181015183820152602001610c73565b50506000910152565b7102330b4b632b2103a37903232b837b9b4ba160751b815260008251610cc1816012850160208701610c70565b7f746f6b656e732066726f6d2077616c6c657420746f20737461736800000000006012939091019283015250602d01919050565b6020815260008251806020840152610d14816040850160208701610c70565b601f01601f19169190910160400192915050565b7f496e73756666696369656e7420746f6b656e2062616c616e6365200000000000815260008351610d6081601b850160208801610c70565b7f696e207573657220737461736820746f20776974686472617700000000000000601b918401918201528351610d9d816034840160208801610c70565b01603401949350505050565b7f5769746864726177616c20746f2077616c6c6574206f66200000000000000000815260008251610de1816018850160208701610c70565b6c1d1bdad95b9cc819985a5b1959609a1b6018939091019283015250602501919050565b600060208284031215610e1757600080fd5b5051919050565b634e487b7160e01b600052604160045260246000fdfea2646970667358221220e91a8087f8b504c4afa81e19c8a84dc3af22a48c9c6c07f4a4a71e0ea363428164736f6c63430008140033",
  "linkReferences": {},
  "deployedLinkReferences": {}
}